{
  "address": "0x90c84237fDdf091b1E63f369AF122EB46000bc70",
  "abi": [
    {
      "inputs": [
        {
          "internalType": "uint256",
          "name": "newItem",
          "type": "uint256"
        }
      ],
      "name": "addNum",
      "outputs": [],
      "stateMutability": "nonpayable",
      "type": "function"
    },
    {
      "inputs": [],
      "name": "getArray",
      "outputs": [
        {
          "internalType": "uint256[]",
          "name": "",
          "type": "uint256[]"
        }
      ],
      "stateMutability": "view",
      "type": "function"
    },
    {
      "inputs": [],
      "name": "refreshArray",
      "outputs": [],
      "stateMutability": "nonpayable",
      "type": "function"
    }
  ],
  "transactionHash": "0x7f263d127693bd17719daa3e7823ca3edcb677245cf56cee5c6d0f8d9598e47d",
  "args": [],
  "numDeployments": 1,
  "solcInputHash": "1c65c62c4322122937bd41c4929fbb47",
  "bytecode": "0x608060405234801561001057600080fd5b506102d9806100206000396000f3fe608060405234801561001057600080fd5b50600436106100415760003560e01c80637527836214610046578063871aab8914610062578063d504ea1d1461006c575b600080fd5b610060600480360381019061005b9190610196565b61008a565b005b61006a6100b6565b005b6100746100c5565b6040516100819190610281565b60405180910390f35b600081908060018154018082558091505060019003906000526020600020016000909190919091505550565b6000806100c3919061011d565b565b6060600080548060200260200160405190810160405280929190818152602001828054801561011357602002820191906000526020600020905b8154815260200190600101908083116100ff575b5050505050905090565b508054600082559060005260206000209081019061013b919061013e565b50565b5b8082111561015757600081600090555060010161013f565b5090565b600080fd5b6000819050919050565b61017381610160565b811461017e57600080fd5b50565b6000813590506101908161016a565b92915050565b6000602082840312156101ac576101ab61015b565b5b60006101ba84828501610181565b91505092915050565b600081519050919050565b600082825260208201905092915050565b6000819050602082019050919050565b6101f881610160565b82525050565b600061020a83836101ef565b60208301905092915050565b6000602082019050919050565b600061022e826101c3565b61023881856101ce565b9350610243836101df565b8060005b8381101561027457815161025b88826101fe565b975061026683610216565b925050600181019050610247565b5085935050505092915050565b6000602082019050818103600083015261029b8184610223565b90509291505056fea2646970667358221220a0cf43520c71b5f56a0dc892e34329dc26604411a03644a72d89c99c467517a864736f6c63430008090033",
  "devdoc": {
    "kind": "dev",
    "methods": {},
    "version": 1
  },
  "userdoc": {
    "kind": "user",
    "methods": {},
    "version": 1
  },
  "storageLayout": {
    "storage": [
      {
        "astId": 4,
        "contract": "contracts/ValueStore.sol:ValueStore",
        "label": "numArray",
        "offset": 0,
        "slot": "0",
        "type": "t_array(t_uint256)dyn_storage"
      }
    ],
    "types": {
      "t_array(t_uint256)dyn_storage": {
        "base": "t_uint256",
        "encoding": "dynamic_array",
        "label": "uint256[]",
        "numberOfBytes": "32"
      },
      "t_uint256": {
        "encoding": "inplace",
        "label": "uint256",
        "numberOfBytes": "32"
      }
    }
  }
}