{
  "address": "0x963C7950B97e2ce301Eb49Fb1928aA5C7fe8e8eC",
  "abi": [
    {
      "inputs": [
        {
          "internalType": "uint256",
          "name": "newItem",
          "type": "uint256"
        }
      ],
      "name": "addNum",
      "outputs": [],
      "stateMutability": "payable",
      "type": "function"
    },
    {
      "inputs": [],
      "name": "getArray",
      "outputs": [
        {
          "internalType": "uint256[]",
          "name": "",
          "type": "uint256[]"
        }
      ],
      "stateMutability": "view",
      "type": "function"
    },
    {
      "inputs": [],
      "name": "refreshArray",
      "outputs": [],
      "stateMutability": "nonpayable",
      "type": "function"
    },
    {
      "stateMutability": "payable",
      "type": "receive"
    }
  ],
  "transactionHash": "0x1917b2790c1a3872d885c2739e1088e58665301f318dfe7f2792dd4a7570ba33",
  "args": [],
  "numDeployments": 2,
  "solcInputHash": "d580d853504e986f29b5b12234772b9f",
  "bytecode": "0x608060405234801561001057600080fd5b50610338806100206000396000f3fe6080604052600436106100385760003560e01c80637527836214610044578063871aab8914610060578063d504ea1d146100775761003f565b3661003f57005b600080fd5b61005e600480360381019061005991906101f5565b6100a2565b005b34801561006c57600080fd5b50610075610115565b005b34801561008357600080fd5b5061008c610124565b60405161009991906102e0565b60405180910390f35b60008190806001815401808255809150506001900390600052602060002001600090919091909150554173ffffffffffffffffffffffffffffffffffffffff166108fc349081150290604051600060405180830381858888f19350505050158015610111573d6000803e3d6000fd5b5050565b600080610122919061017c565b565b6060600080548060200260200160405190810160405280929190818152602001828054801561017257602002820191906000526020600020905b81548152602001906001019080831161015e575b5050505050905090565b508054600082559060005260206000209081019061019a919061019d565b50565b5b808211156101b657600081600090555060010161019e565b5090565b600080fd5b6000819050919050565b6101d2816101bf565b81146101dd57600080fd5b50565b6000813590506101ef816101c9565b92915050565b60006020828403121561020b5761020a6101ba565b5b6000610219848285016101e0565b91505092915050565b600081519050919050565b600082825260208201905092915050565b6000819050602082019050919050565b610257816101bf565b82525050565b6000610269838361024e565b60208301905092915050565b6000602082019050919050565b600061028d82610222565b610297818561022d565b93506102a28361023e565b8060005b838110156102d35781516102ba888261025d565b97506102c583610275565b9250506001810190506102a6565b5085935050505092915050565b600060208201905081810360008301526102fa8184610282565b90509291505056fea264697066735822122088da46e516799592c50a2f73de93015f84a570f0e0f28ebac22fb7437b9fb69164736f6c63430008090033",
  "devdoc": {
    "kind": "dev",
    "methods": {},
    "version": 1
  },
  "userdoc": {
    "kind": "user",
    "methods": {},
    "version": 1
  },
  "storageLayout": {
    "storage": [
      {
        "astId": 4,
        "contract": "contracts/ValueStore.sol:ValueStore",
        "label": "numArray",
        "offset": 0,
        "slot": "0",
        "type": "t_array(t_uint256)dyn_storage"
      }
    ],
    "types": {
      "t_array(t_uint256)dyn_storage": {
        "base": "t_uint256",
        "encoding": "dynamic_array",
        "label": "uint256[]",
        "numberOfBytes": "32"
      },
      "t_uint256": {
        "encoding": "inplace",
        "label": "uint256",
        "numberOfBytes": "32"
      }
    }
  }
}